:04000000BEEF0AF055
:10100000003738392F3435362A3132332D23303DED
:101010002B00010E2D6E2750D8B411EF08F013EFFE
:1010200008F023EF08F02750D96EDA6ADF30E83293
:10103000E832070B286E070E286421EF08F023EF33
:1010400008F07AEF08F0000E2D6E90EF08F02750B0
:10105000D96EDA6ADF30E832E832070B286E010E0B
:10106000296E282A36EF08F0D8902936282E34EF3A
:1010700008F02950FF0A2A6E2750D96EDA6ADF502D
:10108000070B020DF350150FD96EDA6ADECF2BF085
:10109000DDCF2CF02BC0D9FF2CC0DAFF2A50DF1691
:1010A00090EF08F02750D96EDA6ADF30E832E83284
:1010B000070B286E010E296E282A61EF08F0D890E0
:1010C0002936282E5FEF08F02750D96EDA6ADF50F4
:1010D000070B020DF350150FD96EDA6ADECF2AF036
:1010E000DDCF2BF02AC0D9FF2BC0DAFF2950DF1249
:1010F00090EF08F02750D96EDA6ADFBC82EF08F073
:1011000085EF08F0010E86EF08F0000E000AD8B453
:1011100027EF08F0010AD8B452EF08F023EF08F0E7
:101120002D501200010E2E6E2750D8B49AEF08F001
:101130009CEF08F0ACEF08F02750D96EDA6ADF3088
:10114000E832E832070B296E070E2964AAEF08F08F
:10115000ACEF08F003EF09F0000E2E6E18EF09F067
:101160002750D96EDA6ADF30E832E832070B296E91
:10117000010E2A6E292ABFEF08F0D8902A36292EB0
:10118000BDEF08F02A50FF0A2B6E2750D96EDA6A9D
:10119000DF50070B020DF3500B0FD96EDA6ADECF6A
:1011A0002CF0DDCF2DF02CC0D9FF2DC0DAFF2B5055
:1011B000DF1618EF09F02750D96EDA6ADF30E8320F
:1011C000E832070B296E010E2A6E292AEAEF08F091
:1011D000D8902A36292EE8EF08F02750D96EDA6A1F
:1011E000DF50070B020DF3500B0FD96EDA6ADECF1A
:1011F0002BF0DDCF2CF02BC0D9FF2CC0DAFF2A500A
:10120000DF1218EF09F02850296E2A6A2A50000AC6
:10121000D8B40DEF09F0ACEF08F02950000AD8B4AB
:10122000B0EF08F0010AD8B4DBEF08F0ACEF08F03B
:101230002E501200000E2C6E2ABE23EF09F021EF73
:1012400009F029EF09F0296C2A1ED8B02A2A010ECC
:101250002C6E28BE30EF09F02EEF09F036EF09F0C2
:10126000276C281ED8B0282A010E2C1A000E2E6ECC
:10127000000E2D6E29502A10D8B441EF09F043EF2B
:1012800009F06BEF09F0010E2B6E4BEF09F0D890CF
:1012900029362A362B2A2AAE50EF09F052EF09F0F0
:1012A00047EF09F0D8902D362E362950275C2A506A
:1012B0002858D8A05EEF09F060EF09F065EF09F05B
:1012C0002950275E2A50285A2D80D8902A32293258
:1012D0002B2E52EF09F02C50D8B471EF09F073EFB8
:1012E00009F077EF09F02D6C2E1ED8B02E2A2DC0F4
:1012F00027F02EC028F01200ECEC0AF0000E3D6E34
:10130000200E2F6E1FC027F0286A000E2A6E0A0ECC
:10131000296ED6EC09F02750306E2EEC0AF0356EAF
:10132000260E276E010E286E92EC08F0356E1A0E0E
:10133000346EF80EE82EFED7342EFCD700D0260EE1
:10134000276E000E286E92EC08F0200E2F6E1FC044
:1013500027F0286A000E2A6E0A0E296E1AEC09F090
:101360002750306E2EEC0AF0250E276E010E286EE7
:1013700092EC08F01A0E346EF80EE82EFED7342EDA
:10138000FCD700D0250E276E000E286E92EC08F0D8
:101390003D2A320E3D64CFEF09F0D1EF09F080EF26
:1013A00009F01F2A7EEF09F000EF00F0000E2C6E0E
:1013B00028BEDFEF09F0DDEF09F0E5EF09F0276C5B
:1013C000281ED8B0282A010E2C6E2ABEECEF09F098
:1013D000EAEF09F0F0EF09F0296C2A1ED8B02A2AAA
:1013E00029502A10D8B4F7EF09F0F9EF09F01DEFF2
:1013F0000AF0010E2B6E01EF0AF0D89029362A363A
:101400002B2A2AAE06EF0AF008EF0AF0FDEF09F0EA
:101410002950275C2A502858D8A011EF0AF013EF62
:101420000AF017EF0AF02950275E2A50285AD89060
:101430002A3229322B2E08EF0AF02C50D8B423EF91
:101440000AF025EF0AF029EF0AF0276C281ED8B021
:10145000282A27C027F028C028F012002F50D8A42F
:1014600034EF0AF036EF0AF042EF0AF0090E30646A
:101470003CEF0AF03EEF0AF042EF0AF0000E316E48
:1014800069EF0AF02FC027F03050010B286E92EC64
:1014900008F0316E2F28276ED8903030010B286E5F
:1014A00092EC08F0316E2F50020F276E3040E84268
:1014B0003F0B010B286E92EC08F0316E2F50030F9A
:1014C000276E3038E8461F0B010B286E92EC08F0AF
:1014D000316E315012002F50D8B471EF0AF073EF13
:1014E0000AF083EF0AF02F50D96EDA6ADF30E83263
:1014F000E832070B306E070E306481EF0AF083EF9D
:101500000AF087EF0AF0000E316E98EF0AF02FC054
:1015100027F009EC08F0316E2FC027F02F50D96E5C
:10152000DA6A000EDFBE010E286E92EC08F0316E12
:10153000315012003250D8A4A0EF0AF0A2EF0AF006
:10154000A6EF0AF0000E336EBCEF0AF032C02FF0A7
:101550006BEC0AF0336E32282F6E6BEC0AF0336EB0
:101560003250020F2F6E6BEC0AF0336E3250030FC5
:101570002F6E6BEC0AF0336E33501200B20EF66E23
:10158000150EF76E000EF86E00EE01F010EE26F06C
:101590000900F5CFEEFFE550E150FAE100EE36F03C
:1015A000070EEE6AE806FDE1000EF86E00017CEF22
:1015B00009F0800F810F820F830F840F890F8A0F2C
:1015C0008B0F8C0F8D0F920F930F940F950F960F1B
:1015D00030020A121A000B03200E326E9AEC0AF047
:1015E000260E2F6E6BEC0AF0250E2F6E6BEC0AF0B8
:0215F0001200E7
:020000040030CA
:0E000000FF021F1EFF8181FF0FC00FE00F40A7
:00000001FF
