:0400000010EF0AF003
:101000000000010E296E2350D8B409EF08F00BEF51
:1010100008F01BEF08F02350D96EDA6ADF30E832AF
:10102000E832070B246E070E246419EF08F01BEF5B
:1010300008F072EF08F0000E296E88EF08F02350D8
:10104000D96EDA6ADF30E832E832070B246E010E1F
:10105000256E242A2EEF08F0D8902536242E2CEF6A
:1010600008F02550FF0A266E2350D96EDA6ADF5049
:10107000070B020DF350150FD96EDA6ADECF27F099
:10108000DDCF28F027C0D9FF28C0DAFF2650DF16B1
:1010900088EF08F02350D96EDA6ADF30E832E832A0
:1010A000070B246E010E256E242A59EF08F0D89004
:1010B0002536242E57EF08F02350D96EDA6ADF5018
:1010C000070B020DF350150FD96EDA6ADECF26F04A
:1010D000DDCF27F026C0D9FF27C0DAFF2550DF1269
:1010E00088EF08F02350D96EDA6ADFBC7AEF08F097
:1010F0007DEF08F0010E7EEF08F0000E000AD8B474
:101100001FEF08F0010AD8B44AEF08F01BEF08F00F
:1011100029501200010E2A6E2350D8B492EF08F025
:1011200094EF08F0A4EF08F02350D96EDA6ADF30AC
:10113000E832E832070B256E070E2564A2EF08F0AF
:10114000A4EF08F0FBEF08F0000E2A6E10EF09F094
:101150002350D96EDA6ADF30E832E832070B256EA9
:10116000010E266E252AB7EF08F0D8902636252ED8
:10117000B5EF08F02650FF0A276E2350D96EDA6AC1
:10118000DF50070B020DF3500B0FD96EDA6ADECF7A
:1011900028F0DDCF29F028C0D9FF29C0DAFF275079
:1011A000DF1610EF09F02350D96EDA6ADF30E8322B
:1011B000E832070B256E010E266E252AE2EF08F0B5
:1011C000D8902636252EE0EF08F02350D96EDA6A43
:1011D000DF50070B020DF3500B0FD96EDA6ADECF2A
:1011E00027F0DDCF28F027C0D9FF28C0DAFF26502E
:1011F000DF1210EF09F02450256E266A2650000AEF
:10120000D8B405EF09F0A4EF08F02550000AD8B4CF
:10121000A8EF08F0010AD8B4D3EF08F0A4EF08F063
:101220002A50120054EC0AF0210E2B6ED8EC09F073
:101230001F0E2B6ED8EC09F01F0E316E710E306E42
:101240001E0EE82EFED7302EFCD7312EFAD700D056
:10125000210E2B6EF4EC09F01F0E2B6EF4EC09F04E
:101260001F0E316E710E306E1E0EE82EFED7302E20
:10127000FCD7312EFAD700D0210E2B6EBCEC09F032
:101280001F0E2B6EBCEC09F01F0E316E710E306E0E
:101290001E0EE82EFED7302EFCD7312EFAD700D006
:1012A000210E2B6ED8EC09F01F0E2B6EF4EC09F01A
:1012B0001F0E316E710E306E1E0EE82EFED7302ED0
:1012C000FCD7312EFAD700D0210E2B6EBCEC09F0E2
:1012D0001F0E2B6EBCEC09F01F0E316E710E306EBE
:1012E0001E0EE82EFED7302EFCD7312EFAD700D0B6
:1012F0001F0E2B6ED8EC09F0210E2B6EF4EC09F0CA
:101300001F0E316E710E306E1E0EE82EFED7302E7F
:10131000FCD7312EFAD700D014EF09F000EF00F01F
:101320002B50D8B496EF09F098EF09F0A8EF09F028
:101330002B50D96EDA6ADF30E832E832070B2C6EB8
:10134000070E2C64A6EF09F0A8EF09F0AAEF09F048
:10135000BBEF09F02BC023F001EC08F02D6E2BC081
:1013600023F02B50D96EDA6A000EDFBE010E246E18
:101370008AEC08F02D6E1200010E2C6E2B50D8A4B2
:10138000C4EF09F0C6EF09F0CAEF09F0000E2C6EA9
:10139000D6EF09F02BC023F0000E246E8AEC08F083
:1013A0002BC023F0000E246E8AEC08F02C501200A3
:1013B000010E2C6E2B50D8A4E0EF09F0E2EF09F0FB
:1013C000E6EF09F0000E2C6EF2EF09F02BC023F0CF
:1013D000010E246E8AEC08F02B28236E000E246E7A
:1013E0008AEC08F02C501200010E2C6E2B50D8A461
:1013F000FCEF09F0FEEF09F002EF0AF0000E2C6E90
:101400000EEF0AF02BC023F0000E246E8AEC08F0D9
:101410002B28236E010E246E8AEC08F02C5012004B
:10142000860EF66E140EF76E000EF86E00EE01F0EA
:1014300010EE22F00900F5CFEEFFE550E150FAE1A1
:1014400000EE32F0070EEE6AE806FDE1000EF86EDF
:10145000000112EF09F0010E2F6E2E50D8A433EFC9
:101460000AF035EF0AF039EF0AF0000E2F6E41EF67
:101470000AF02EC02BF090EC09F02E282B6E90EC89
:1014800009F02F501200800F810F820F830F840FFD
:10149000890F8A0F8B0F8C0F8D0F920F930F940F64
:1014A000950F960F121A020A210E2E6E2BEC0AF0DF
:0A14B0001F0E2E6E2BEC0AF0120046
:020000040030CA
:0E000000FF021F1EFF8181FF0FC00FE00F40A7
:00000001FF
