:04000000B6EF0AF05D
:101000000000010E2D6E2750D8B409EF08F00BEF49
:1010100008F01BEF08F02750D96EDA6ADF30E832AB
:10102000E832070B286E070E286419EF08F01BEF53
:1010300008F072EF08F0000E2D6E88EF08F02750D0
:10104000D96EDA6ADF30E832E832070B286E010E1B
:10105000296E282A2EEF08F0D8902936282E2CEF5A
:1010600008F02950FF0A2A6E2750D96EDA6ADF503D
:10107000070B020DF350150FD96EDA6ADECF2BF095
:10108000DDCF2CF02BC0D9FF2CC0DAFF2A50DF16A1
:1010900088EF08F02750D96EDA6ADF30E832E8329C
:1010A000070B286E010E296E282A59EF08F0D890F8
:1010B0002936282E57EF08F02750D96EDA6ADF500C
:1010C000070B020DF350150FD96EDA6ADECF2AF046
:1010D000DDCF2BF02AC0D9FF2BC0DAFF2950DF1259
:1010E00088EF08F02750D96EDA6ADFBC7AEF08F093
:1010F0007DEF08F0010E7EEF08F0000E000AD8B474
:101100001FEF08F0010AD8B44AEF08F01BEF08F00F
:101110002D501200010E2E6E2750D8B492EF08F019
:1011200094EF08F0A4EF08F02750D96EDA6ADF30A8
:10113000E832E832070B296E070E2964A2EF08F0A7
:10114000A4EF08F0FBEF08F0000E2E6E10EF09F090
:101150002750D96EDA6ADF30E832E832070B296EA1
:10116000010E2A6E292AB7EF08F0D8902A36292EC8
:10117000B5EF08F02A50FF0A2B6E2750D96EDA6AB5
:10118000DF50070B020DF3500B0FD96EDA6ADECF7A
:101190002CF0DDCF2DF02CC0D9FF2DC0DAFF2B5065
:1011A000DF1610EF09F02750D96EDA6ADF30E83227
:1011B000E832070B296E010E2A6E292AE2EF08F0A9
:1011C000D8902A36292EE0EF08F02750D96EDA6A37
:1011D000DF50070B020DF3500B0FD96EDA6ADECF2A
:1011E0002BF0DDCF2CF02BC0D9FF2CC0DAFF2A501A
:1011F000DF1210EF09F02850296E2A6A2A50000ADF
:10120000D8B405EF09F0A4EF08F02950000AD8B4CB
:10121000A8EF08F0010AD8B4D3EF08F0A4EF08F063
:101220002E501200000E2C6E2ABE1BEF09F019EF93
:1012300009F021EF09F0296C2A1ED8B02A2A010EE4
:101240002C6E28BE28EF09F026EF09F02EEF09F0EA
:10125000276C281ED8B0282A010E2C1A000E2E6EDC
:10126000000E2D6E29502A10D8B439EF09F03BEF4B
:1012700009F063EF09F0010E2B6E43EF09F0D890EF
:1012800029362A362B2A2AAE48EF09F04AEF09F010
:101290003FEF09F0D8902D362E362950275C2A5082
:1012A0002858D8A056EF09F058EF09F05DEF09F083
:1012B0002950275E2A50285A2D80D8902A32293268
:1012C0002B2E4AEF09F02C50D8B469EF09F06BEFE0
:1012D00009F06FEF09F02D6C2E1ED8B02E2A2DC00C
:1012E00027F02EC028F01200E4EC0AF0000E3D6E4C
:1012F000200E2F6E1FC027F0286A000E2A6E0A0EDD
:10130000296ECEEC09F02750306E26EC0AF0356ECF
:10131000260E276E010E286E8AEC08F0356E1A0E26
:10132000346EF80EE82EFED7342EFCD700D0260EF1
:10133000276E000E286E8AEC08F0200E2F6E1FC05C
:1013400027F0286A000E2A6E0A0E296E12EC09F0A8
:101350002750306E26EC0AF0250E276E010E286EFF
:101360008AEC08F01A0E346EF80EE82EFED7342EF2
:10137000FCD700D0250E276E000E286E8AEC08F0F0
:101380003D2A320E3D64C7EF09F0C9EF09F078EF4E
:1013900009F01F2A76EF09F000EF00F0000E2C6E26
:1013A00028BED7EF09F0D5EF09F0DDEF09F0276C83
:1013B000281ED8B0282A010E2C6E2ABEE4EF09F0B0
:1013C000E2EF09F0E8EF09F0296C2A1ED8B02A2ACA
:1013D00029502A10D8B4EFEF09F0F1EF09F015EF1A
:1013E0000AF0010E2B6EF9EF09F0D89029362A3653
:1013F0002B2A2AAEFEEF09F000EF0AF0F5EF09F014
:101400002950275C2A502858D8A009EF0AF00BEF82
:101410000AF00FEF0AF02950275E2A50285AD89078
:101420002A3229322B2E00EF0AF02C50D8B41BEFB1
:101430000AF01DEF0AF021EF0AF0276C281ED8B041
:10144000282A27C027F028C028F012002F50D8A43F
:101450002CEF0AF02EEF0AF03AEF0AF0090E306492
:1014600034EF0AF036EF0AF03AEF0AF0000E316E70
:1014700061EF0AF02FC027F03050010B286E8AEC84
:1014800008F0316E2F28276ED8903030010B286E6F
:101490008AEC08F0316E2F50020F276E3040E84280
:1014A0003F0B010B286E8AEC08F0316E2F50030FB2
:1014B000276E3038E8461F0B010B286E8AEC08F0C7
:1014C000316E315012002F50D8B469EF0AF06BEF33
:1014D0000AF07BEF0AF02F50D96EDA6ADF30E8327B
:1014E000E832070B306E070E306479EF0AF07BEFBD
:1014F0000AF07FEF0AF0000E316E90EF0AF02FC075
:1015000027F001EC08F0316E2FC027F02F50D96E74
:10151000DA6A000EDFBE010E286E8AEC08F0316E2A
:10152000315012003250D8A498EF0AF09AEF0AF026
:101530009EEF0AF0000E336EB4EF0AF032C02FF0C7
:1015400063EC0AF0336E32282F6E63EC0AF0336ED0
:101550003250020F2F6E63EC0AF0336E3250030FDD
:101560002F6E63EC0AF0336E33501200A20EF66E4B
:10157000150EF76E000EF86E00EE01F010EE26F07C
:101580000900F5CFEEFFE550E150FAE100EE36F04C
:10159000070EEE6AE806FDE1000EF86E000174EF3A
:1015A00009F0800F810F820F830F840F890F8A0F3C
:1015B0008B0F8C0F8D0F920F930F940F950F960F2B
:1015C00030020A121A000B03200E326E92EC0AF05F
:1015D000260E2F6E63EC0AF0250E2F6E63EC0AF0D8
:0215E0001200F7
:020000040030CA
:0E000000FF021F1EFF8181FF0FC00FE00F40A7
:00000001FF
