:0400000030EF09F0E4
:101000000000000E246E22BE0AEF08F008EF08F080
:1010100010EF08F0216C221ED8B0222A010E246E97
:1010200020BE17EF08F015EF08F01DEF08F01F6C59
:10103000201ED8B0202A010E241A000E266E000EA3
:10104000256E21502210D8B428EF08F02AEF08F0BE
:1010500052EF08F0010E236E32EF08F0D8902136DF
:101060002236232A22AE37EF08F039EF08F02EEFB0
:1010700008F0D8902536263621501F5C2250205883
:10108000D8A045EF08F047EF08F04CEF08F02150EA
:101090001F5E2250205A2580D89022322132232EE2
:1010A00039EF08F02450D8B458EF08F05AEF08F0A0
:1010B0005EEF08F0256C261ED8B0262A25C01FF04A
:1010C00026C020F01200000E246E20BE6CEF08F047
:1010D0006AEF08F072EF08F01F6C201ED8B0202ACB
:1010E000010E246E22BE79EF08F077EF08F07DEF55
:1010F00008F0216C221ED8B0222A21502210D8B428
:1011000084EF08F086EF08F0AAEF08F0010E236ED6
:101110008EEF08F0D89021362236232A22AE93EFA4
:1011200008F095EF08F08AEF08F021501F5C22507C
:101130002058D8A09EEF08F0A0EF08F0A4EF08F028
:1011400021501F5E2250205AD89022322132232E65
:1011500095EF08F02450D8B4B0EF08F0B2EF08F0E3
:10116000B6EF08F01F6C201ED8B0202A1FC01FF059
:1011700020C020F012005AEC09F029C01FF0206AAC
:10118000000E226E0A0E216E01EC08F01FC027F03F
:1011900020C028F0273AF00E271629C01FF0206A39
:1011A000000E226E0A0E216E63EC08F01F5027100D
:1011B000316E31C01FF0020EEEEC08F0292A030E4A
:1011C000286E8A0E276E560EE82EFED7272EFCD7E5
:1011D000282EFAD7BDEF08F000EF00F0236E010EC5
:1011E000226E040E2364F7EF08F0F9EF08F0FDEF2C
:1011F00008F0000E226E0DEF09F02350020DF3509F
:101200000B0FD96EDA6ADECF20F0DDCF21F020C0DF
:10121000D9FF21C0DAFF1FC0DFFF22501200236E6A
:10122000010E226E040E236418EF09F01AEF09F084
:101230001EEF09F0000E226E2EEF09F02350020D72
:10124000F350150FD96EDA6ADECF20F0DDCF21F032
:1012500020C0D9FF21C0DAFF1FC0DFFF22501200DB
:10126000960EF66E120EF76E000EF86E00EE01F09E
:1012700010EE1EF00900F5CFEEFFE550E150FAE167
:1012800000EE29F0080EEE6AE806FDE1000EF86EA9
:101290000001BBEF08F0800F810F820F830F840FD6
:1012A000890F8A0F8B0F8C0F8D0F920F930F940F56
:1012B000950F960F000E1F6E020E0FEC09F0000E38
:0A12C0001F6E020EEEEC08F01200A3
:020000040030CA
:0E000000FF021F1EFF8181FF0FC00FE00F40A7
:00000001FF
