:0400000010EF0AF003
:101000000000010E266E2050D8B409EF08F00BEF57
:1010100008F01BEF08F02050D96EDA6ADF30E832B2
:10102000E832070B216E070E216419EF08F01BEF61
:1010300008F072EF08F0000E266E88EF08F02050DE
:10104000D96EDA6ADF30E832E832070B216E010E22
:10105000226E212A2EEF08F0D8902236212E2CEF76
:1010600008F02250FF0A236E2050D96EDA6ADF5052
:10107000070B020DF350150FD96EDA6ADECF24F09C
:10108000DDCF25F024C0D9FF25C0DAFF2350DF16BD
:1010900088EF08F02050D96EDA6ADF30E832E832A3
:1010A000070B216E010E226E212A59EF08F0D8900D
:1010B0002236212E57EF08F02050D96EDA6ADF5021
:1010C000070B020DF350150FD96EDA6ADECF23F04D
:1010D000DDCF24F023C0D9FF24C0DAFF2250DF1275
:1010E00088EF08F02050D96EDA6ADFBC7AEF08F09A
:1010F0007DEF08F0010E7EEF08F0000E000AD8B474
:101100001FEF08F0010AD8B44AEF08F01BEF08F00F
:1011100026501200010E276E2050D8B492EF08F02E
:1011200094EF08F0A4EF08F02050D96EDA6ADF30AF
:10113000E832E832070B226E070E2264A2EF08F0B5
:10114000A4EF08F0FBEF08F0000E276E10EF09F097
:101150002050D96EDA6ADF30E832E832070B226EAF
:10116000010E236E222AB7EF08F0D8902336222EE4
:10117000B5EF08F02350FF0A246E2050D96EDA6ACA
:10118000DF50070B020DF3500B0FD96EDA6ADECF7A
:1011900025F0DDCF26F025C0D9FF26C0DAFF245088
:1011A000DF1610EF09F02050D96EDA6ADF30E8322E
:1011B000E832070B226E010E236E222AE2EF08F0BE
:1011C000D8902336222EE0EF08F02050D96EDA6A4C
:1011D000DF50070B020DF3500B0FD96EDA6ADECF2A
:1011E00024F0DDCF25F024C0D9FF25C0DAFF23503D
:1011F000DF1210EF09F02150226E236A2350000AFB
:10120000D8B405EF09F0A4EF08F02250000AD8B4D2
:10121000A8EF08F0010AD8B4D3EF08F0A4EF08F063
:1012200027501200010E2A6E2850D8A41AEF09F098
:101230001CEF09F020EF09F0000E2A6E4AEF09F0CA
:1012400032C02BF02850D96EDA6ADF500F0B296EAE
:101250002B502918F80B29182B6E2850D96EDA6AF2
:10126000DF38070B296E2946294629462B502918B5
:10127000C70B29182B6E2B9C2850D96EDA6ADFAE6B
:1012800002D02B8E01D02B9E2B0E206E010E216ED4
:101290008AEC08F02A501200010E2A6E2850D8A4B9
:1012A00054EF09F056EF09F05AEF09F0000E2A6EDC
:1012B00084EF09F031C02BF02850D96EDA6ADF5084
:1012C0000F0B296E2B502918F80B29182B6E28505C
:1012D000D96EDA6ADF38070B296E29462946294676
:1012E0002B502918C70B29182B6E2B9C2850D96E10
:1012F000DA6ADFAE02D02B8E01D02B9E2B0E206E31
:10130000000E216E8AEC08F02A501200010E2D6E9C
:101310002B50D8A48EEF09F090EF09F094EF09F06C
:10132000000E2D6EBCEF09F033C02EF02B50D96E9D
:10133000DA6ADF500F0B2C6E2E502C18F80B2C187D
:101340002E6E2B50D96EDA6ADF38070B2C6E2C46C6
:101350002C462C462E502C18C70B2C182E6E2E9C6B
:101360002B50D96EDA6ADFAE02D02E8E01D02E9EBF
:101370002E0E286EBEEC09F02D5012002850D8B465
:10138000C4EF09F0C6EF09F0D6EF09F02850D96E86
:10139000DA6ADF30E832E832070B296E070E29647B
:1013A000D4EF09F0D6EF09F0D8EF09F0E9EF09F032
:1013B00028C020F001EC08F02A6E28C020F0285048
:1013C000D96EDA6A000EDFBE010E216E8AEC08F0DB
:1013D0002A6E12003BEC0AF01F0E286E12EC09F088
:1013E0001F0E306E710E2F6E1E0EE82EFED72F2EA2
:1013F000FCD7302EFAD700D01F0E286E4CEC09F027
:101400001F0E306E710E2F6E1E0EE82EFED72F2E81
:10141000FCD7302EFAD700D0ECEF09F000EF00F047
:10142000560EF66E140EF76E000EF86E00EE01F01A
:1014300010EE1FF00900F5CFEEFFE550E150FAE1A4
:1014400000EE31F0070EEE6AE806FDE1000EF86EE0
:101450000001EAEF09F0800F810F820F830F840FE4
:10146000890F8A0F8B0F8C0F8D0F920F930F940F94
:05147000950F960F82AC
:0A1476001F0E2B6E86EC09F0120029
:020000040030CA
:0E000000FF021F1EFF8181FF0FC00FE00F40A7
:00000001FF
