:0400000045EF0AF0CE
:10100000003738392F3435362A3132332D23303DED
:101010002B00010E2D6E2750D8B411EF08F013EFFE
:1010200008F023EF08F02750D96EDA6ADF30E83293
:10103000E832070B286E070E286421EF08F023EF33
:1010400008F07AEF08F0000E2D6E90EF08F02750B0
:10105000D96EDA6ADF30E832E832070B286E010E0B
:10106000296E282A36EF08F0D8902936282E34EF3A
:1010700008F02950FF0A2A6E2750D96EDA6ADF502D
:10108000070B020DF350150FD96EDA6ADECF2BF085
:10109000DDCF2CF02BC0D9FF2CC0DAFF2A50DF1691
:1010A00090EF08F02750D96EDA6ADF30E832E83284
:1010B000070B286E010E296E282A61EF08F0D890E0
:1010C0002936282E5FEF08F02750D96EDA6ADF50F4
:1010D000070B020DF350150FD96EDA6ADECF2AF036
:1010E000DDCF2BF02AC0D9FF2BC0DAFF2950DF1249
:1010F00090EF08F02750D96EDA6ADFBC82EF08F073
:1011000085EF08F0010E86EF08F0000E000AD8B453
:1011100027EF08F0010AD8B452EF08F023EF08F0E7
:101120002D501200010E2E6E2750D8B49AEF08F001
:101130009CEF08F0ACEF08F02750D96EDA6ADF3088
:10114000E832E832070B296E070E2964AAEF08F08F
:10115000ACEF08F003EF09F0000E2E6E18EF09F067
:101160002750D96EDA6ADF30E832E832070B296E91
:10117000010E2A6E292ABFEF08F0D8902A36292EB0
:10118000BDEF08F02A50FF0A2B6E2750D96EDA6A9D
:10119000DF50070B020DF3500B0FD96EDA6ADECF6A
:1011A0002CF0DDCF2DF02CC0D9FF2DC0DAFF2B5055
:1011B000DF1618EF09F02750D96EDA6ADF30E8320F
:1011C000E832070B296E010E2A6E292AEAEF08F091
:1011D000D8902A36292EE8EF08F02750D96EDA6A1F
:1011E000DF50070B020DF3500B0FD96EDA6ADECF1A
:1011F0002BF0DDCF2CF02BC0D9FF2CC0DAFF2A500A
:10120000DF1218EF09F02850296E2A6A2A50000AC6
:10121000D8B40DEF09F0ACEF08F02950000AD8B4AB
:10122000B0EF08F0010AD8B4DBEF08F0ACEF08F03B
:101230002E501200000E356E000E366E000E346E0B
:10124000000E336E2F50D8B428EF09F02AEF09F0C2
:1012500032EF09F03050D8A430EF09F032EF09F046
:1012600036EF09F0000E326E8EEF09F0000E356E8B
:10127000000E346E2F503424276E000E286E92EC30
:1012800008F0342A030E346448EF09F04AEF09F0FD
:101290003AEF09F02F503524276E010E286E92EC9C
:1012A00008F01A0E316EF80EE82EFED7312EFCD75C
:1012B00000D0000E366E2F503624040F276E330EEA
:1012C000286E90EC09F0326E3304D8A46AEF09F06E
:1012D0006CEF09F07CEF09F03550040DF350010F6D
:1012E0003624316E31C0F6FF100EF76E3050D96ED5
:1012F000DA6A0800F5CFDFFF362A030E366483EF83
:1013000009F085EF09F05BEF09F0352A030E35642B
:101310008CEF09F08EEF09F038EF09F0325012002F
:10132000010E2D6E2750D8B498EF09F09AEF09F00E
:10133000B2EF09F02850D8B4A0EF09F0A2EF09F0FD
:10134000B2EF09F02750D96EDA6ADF30E832E832BE
:10135000070B296E070E2964B0EF09F0B2EF09F010
:10136000B6EF09F0000E2D6EE0EF09F02850D96EAF
:10137000DA6A2750E16EE26AE730E832E832070BBA
:10138000296E2750E16EE26AE750070B020DF35019
:10139000010FE16EE26AE6CF2AF0E5CF2BF02AC01A
:1013A000E1FF2BC0E2FFE7502C6E292ADAEF09F0AB
:1013B000D8902C32292ED8EF09F02C50010BDF6E7B
:1013C0002D501200000E346E000E356E3250D8A42F
:1013D000ECEF09F0EEEF09F0F2EF09F0000E336EDA
:1013E00014EF0AF0000E346E325034242F6E16ECD7
:1013F0000AF0342A030E346400EF0AF002EF0AF018
:10140000F4EF09F0000E356E32503524040F276ECC
:1014100009EC08F0336E352A030E356412EF0AF03A
:1014200014EF0AF004EF0AF0335012002F50D8B432
:101430001CEF0AF01EEF0AF02EEF0AF02F50D96EC3
:10144000DA6ADF30E832E832070B306E070E3064BC
:101450002CEF0AF02EEF0AF032EF0AF0000E316E98
:1014600043EF0AF02FC027F009EC08F0316E2FC0CF
:1014700027F02F50D96EDA6A000EDFBE010E286EFB
:1014800092EC08F0316E31501200C00EF66E140E60
:10149000F76E000EF86E00EE01F010EE26F0090077
:1014A000F5CFEEFFE550E150FAE100EE37F0080E1F
:1014B000EE6AE806FDE1000EF86E000173EF0AF037
:1014C000800F810F820F830F840F890F8A0F8B0F7C
:1014D0008C0F8D0F920F930F940F950F960F020A9A
:1014E000121A626A727A84EC0AF01F0E2F6E3E0E98
:1014F000306E1AEC09F075EF0AF000EF00F01F0EE5
:0E150000326EE2EC09F012007FEC0AF01200ED
:020000040030CA
:0E000000FF021F1EFF8181FF0FC00FE00F40A7
:00000001FF
